:020000040800F2
:100000000050002029080008790800087908000835
:100010007908000879080008790800080000000045
:100020000000000000000000000000007908000847
:100030007908000800000000790800087908000825
:10004000790800087908000879080008790800088C
:100050007908000879080008A1070008D1070008FE
:10006000790800087908000879080008790800086C
:10007000790800087908000879080008790800085C
:10008000790800087908000879080008790800084C
:10009000790800087908000879080008790800083C
:1000A000790800087908000879080008790800082C
:1000B000790800087908000879080008790800081C
:1000C000790800087908000879080008790800080C
:1000D00079080008790800087908000879080008FC
:1000E0007908000879080008000000007908000875
:1000F00079080008790800087908000879080008DC
:1001000079080008790800087908000879080008CB
:1001100079080008790800087908000879080008BB
:1001200079080008790800087908000879080008AB
:1001300010B5054C237833B9044B13B10448AFF321
:1001400000800123237010BD00000020000000008B
:10015000C408000808B5034B1BB103490348AFF3BB
:10016000008008BD0000000004000020C408000852
:1001700080B582B000AF0346FB71FB79022B10D033
:10018000022B13DC002B02D0012B05D00EE0022144
:10019000062000F087FA0AE00321062000F082FA28
:1001A00005E00421062000F07DFA00E000BF00BF5A
:1001B0000837BD4680BD000080B483B000AF034661
:1001C000FB710B46BB7113467B71FB79022B00F26E
:1001D000B980BB790F2B00F2B580FB79022B74D06C
:1001E000022B00F3A880002B02D0012B37D0A2E015
:1001F000BB79072B17D8564B1B68BA7992000F2191
:1002000001FA02F2D2431146514A0B401360504B9F
:100210001B687979BA79920001FA02F211464C4AC8
:100220000B43136089E0BB79072B40F28680494B72
:100230001B68BA7992000F2101FA02F2D2431146EB
:10024000444A0B401360434B1B687979BA7992009A
:1002500001FA02F211463F4A0B4313606DE0BB798D
:10026000072B17D83C4B1B68BA7992000F2101FA73
:1002700002F2D2431146384A0B401360364B1B68DA
:100280007979BA79920001FA02F21146324A0B43A7
:10029000136054E0BB79072B51D9304B1B68BA79F6
:1002A00092000F2101FA02F2D24311462B4A0B4071
:1002B00013602A4B1B687979BA79920001FA02F22D
:1002C0001146264A0B43136039E0BB79072B17D838
:1002D000234B1B68BA7992000F2101FA02F2D24334
:1002E00011461F4A0B4013601D4B1B687979BA7980
:1002F000920001FA02F21146194A0B43136020E002
:10030000BB79072B1DD9174B1B68BA7992000F21B7
:1003100001FA02F2D2431146124A0B401360114B0C
:100320001B687979BA79920001FA02F211460D4AF6
:100330000B43136005E000BF04E000BF02E000BF14
:1003400000E000BF00BF0C37BD4680BC704700BF57
:100350000008014004080140000C0140040C014069
:10036000001001400410014080B483B000AF034688
:10037000FB710B46BB7113467B71FB79022B64D872
:10038000BB790F2B61D87B79012B2AD1FB79022B0A
:100390001CD0022B56DC002B02D0012B0BD051E0DD
:1003A0002C4B1B68BA79012101FA02F21146294A45
:1003B0000B43136049E0284B1B68BA79012101FA0D
:1003C00002F21146244A0B4313603EE0234B1B68A4
:1003D000BA79012101FA02F21146204A0B43136057
:1003E00033E07B79002B30D1FB79022B1ED0022B1E
:1003F0002ADC002B02D0012B0CD025E0154B1B680A
:10040000BA79012101FA02F2D2431146114A0B4096
:1004100013601AE0104B1B68BA79012101FA02F24D
:10042000D24311460C4A0B4013600EE00B4B1B6885
:10043000BA79012101FA02F2D2431146074A0B4070
:10044000136002E000BF00E000BF00BF0C37BD46F4
:1004500080BC70470C0801400C0C01400C1001409E
:1004600080B483B000AF03460A46FB711346BB71EC
:10047000FB79022B2ED8BB790F2B2BD8FB79022BC3
:100480001CD0022B25DC002B02D0012B0BD020E04E
:10049000134B1B68BA79012101FA02F21146104A86
:1004A0004B40136016E00F4B1B68BA79012101FA2B
:1004B00002F211460B4A4B4013600BE00A4B1B68DB
:1004C000BA79012101FA02F21146074A4B40136042
:1004D00000E000BF00BF0C37BD4680BC704700BFC6
:1004E0000C0801400C0C01400C10014080B400AF1E
:1004F000034B044A1A6000BFBD4680BC704700BF72
:100500000CED00E00005FA0580B483B000AF0346AF
:10051000FB71FB791F2B05D8FB7901229A400D4B0B
:100520001A6012E0FB793F2B06D8FB79203B0122B1
:100530009A40094B1A6008E0FB79502B05D8FB79EB
:10054000403B01229A40054B1A6000BF0C37BD4664
:1005500080BC704700E100E004E100E008E100E059
:1005600080B483B000AF0346FB71FB791F2B05D825
:10057000FB7901229A400E4B1A6014E0FB793F2B65
:1005800008D8FB79203BFB71FB7901229A40094B8B
:100590001A6008E0FB79502B05D8FB79403B01221B
:1005A0009A40054B1A6000BF0C37BD4680BC7047AF
:1005B00000E200E004E200E008E200E080B483B082
:1005C00000AF0346FB71FB791F2B05D8FB79012295
:1005D0009A400D4B1A6012E0FB793F2B06D8FB794D
:1005E000203B01229A40094B1A6008E0FB79502B0E
:1005F00005D8FB79403B01229A40054B1A6000BFA9
:100600000C37BD4680BC704780E200E084E200E029
:1006100088E200E080B485B000AF0346FB710B4672
:10062000BB7113467B710023FB73BB799B005AB2ED
:1006300097F9053013435BB2FB73FB79502B08D855
:10064000FB7B1A01FB799B0003F1604303F56443D4
:100650001A6000BF1437BD4680BC704780B400AF3D
:100660000E4B1B680D4A23F0010313600B4B1B68F4
:100670000A4A23F002031360094B1B68084A43F03F
:100680000103136000BF064B1B6803F00203002B3D
:10069000F9D000BF00BFBD4680BC704704100240C7
:1006A0000010024080B483B000AF03460A46FB71DD
:1006B0001346BB71BB791F2B2BD8FB79062B11D0AE
:1006C000062B25DC012B02D0032B16D020E0134B88
:1006D0001B68BA79012101FA02F211460F4A0B4355
:1006E000136016E00E4B1B68BA79012101FA02F281
:1006F00011460B4A0B4313600BE00A4B1B68BA7997
:10070000012101FA02F21146064A0B43136000E090
:1007100000BF00BF0C37BD4680BC704714100240BC
:10072000181002401C10024080B500AFFFF796FF82
:100730000020FFF71DFD0120FFF71AFD0220FFF743
:1007400017FD022201210020FFF736FD02220021C1
:100750000020FFF731FD022201210120FFF72CFDCF
:10076000FFF7C4FE0620FFF7CFFE0720FFF7CCFE01
:10077000002201210620FFF74DFF00220021072063
:10078000FFF748FF0620FFF7EBFE01210120FFF7EE
:1007900067FE00F033F801210120FFF761FEF1E769
:1007A00080B500AF0720FFF7DBFE0620FFF706FF4E
:1007B000012201210020FFF7D7FD00F01FF80022E1
:1007C00001210020FFF7D0FD00F018F800BF80BD28
:1007D00080B500AF0720FFF7F1FE012200210020C5
:1007E000FFF7C2FD00F00AF8002200210020FFF709
:1007F000BBFD00F003F800BF80BD000080B483B0F3
:1008000000AF00237B6003E000BF7B6801337B60A7
:100810007B68044A9342F7D900BF00BF0C37BD463E
:1008200080BC70473F0D03000D488546AFF3008044
:100830000C480D490D4A002302E0D458C45004333B
:10084000C4188C42F9D30A4A0A4C002301E0136011
:100850000432A242FBD300F011F8FFF765FFFEE778
:10086000005000200000002000000020E4080008E4
:10087000000000201C000020FEE7000070B50026EC
:100880000C4D0D4C641BA410A64209D100F01AF8BF
:1008900000260A4D0A4C641BA410A64205D170BD67
:1008A00055F8043B98470136EEE755F8043B984766
:1008B0000136F2E7DC080008DC080008DC08000864
:1008C000E0080008F8B500BFF8BC08BC9E467047B9
:0C08D000F8B500BFF8BC08BC9E4670479D
:0408DC0055010008BA
:0408E00031010008DA
:0400000508000829BE
:00000001FF
