:020000040800F2
:1000000000500020050700085507000855070008A4
:1000100055070008550700085507000800000000B4
:10002000000000000000000000000000550700086C
:10003000550700080000000055070008F1050008FA
:100040005507000855070008550700085507000820
:100050005507000855070008550700085507000810
:100060005507000855070008550700085507000800
:1000700055070008550700085507000855070008F0
:1000800055070008550700085507000855070008E0
:1000900055070008550700085507000855070008D0
:1000A00055070008550700085507000855070008C0
:1000B00055070008550700085507000855070008B0
:1000C00055070008550700085507000855070008A0
:1000D0005507000855070008550700085507000890
:1000E00055070008550700080000000055070008E4
:1000F0005507000855070008550700085507000870
:10010000550700085507000855070008550700085F
:10011000550700085507000855070008550700084F
:10012000550700085507000855070008550700083F
:1001300010B5054C237833B9044B13B10448AFF321
:1001400000800123237010BD00000020000000008B
:10015000A007000808B5034B1BB103490348AFF3E0
:10016000008008BD0000000004000020A007000877
:1001700080B483B000AF0346FB710B46BB711346DE
:100180007B71FB79022B00F2B980BB790F2B00F257
:10019000B580FB79022B74D0022B00F3A880002BD2
:1001A00002D0012B37D0A2E0BB79072B17D8564BD2
:1001B0001B68BA7992000F2101FA02F2D24311466C
:1001C000514A0B401360504B1B687979BA79920001
:1001D00001FA02F211464C4A0B43136089E0BB79E5
:1001E000072B40F28680494B1B68BA7992000F2199
:1001F00001FA02F2D2431146444A0B401360434BCA
:100200001B687979BA79920001FA02F211463F4AE5
:100210000B4313606DE0BB79072B17D83C4B1B6871
:10022000BA7992000F2101FA02F2D2431146384AFC
:100230000B401360364B1B687979BA79920001FA4A
:1002400002F21146324A0B43136054E0BB79072B8C
:1002500051D9304B1B68BA7992000F2101FA02F292
:10026000D24311462B4A0B4013602A4B1B68797905
:10027000BA79920001FA02F21146264A0B43136042
:1002800039E0BB79072B17D8234B1B68BA7992004A
:100290000F2101FA02F2D24311461F4A0B401360AC
:1002A0001D4B1B687979BA79920001FA02F2114666
:1002B000194A0B43136020E0BB79072B1DD9174B5C
:1002C0001B68BA7992000F2101FA02F2D24311465B
:1002D000124A0B401360114B1B687979BA7992006E
:1002E00001FA02F211460D4A0B43136005E000BF0C
:1002F00004E000BF02E000BF00E000BF00BF0C3719
:10030000BD4680BC704700BF0008014004080140A2
:10031000000C0140040C0140001001400410014099
:1003200080B483B000AF03460A46FB711346BB712D
:10033000FB79022B2ED8BB790F2B2BD8FB79022B04
:100340001CD0022B25DC002B02D0012B0BD020E08F
:10035000134B1B68BA79012101FA02F21146104AC7
:100360004B40136016E00F4B1B68BA79012101FA6C
:1003700002F211460B4A4B4013600BE00A4B1B681C
:10038000BA79012101FA02F21146074A4B40136083
:1003900000E000BF00BF0C37BD4680BC704700BF07
:1003A0000C0801400C0C01400C10014080B400AF5F
:1003B0000E4B1B680D4A23F0010313600B4B1B68A7
:1003C0000A4A23F002031360094B1B68084A43F0F2
:1003D0000103136000BF064B1B6803F00203002BF0
:1003E000F9D000BF00BFBD4680BC7047041002407A
:1003F0000010024080B483B000AF03460A46FB7190
:100400001346BB71BB791F2B2BD8FB79062B11D060
:10041000062B25DC012B02D0032B16D020E0134B3A
:100420001B68BA79012101FA02F211460F4A0B4307
:10043000136016E00E4B1B68BA79012101FA02F233
:1004400011460B4A0B4313600BE00A4B1B68BA7949
:10045000012101FA02F21146064A0B43136000E043
:1004600000BF00BF0C37BD4680BC7047141002406F
:10047000181002401C10024080B500AF054800F083
:10048000C1F800F0CDF84FF47A7000F0D5F800BF55
:1004900080BD00BF2105000880B485B000AFBA6000
:1004A0001A460346FB730B46BB811346FB80FA7B5F
:1004B0001A4913465B0013449B000B4404331B682A
:1004C000002B26D1FA7B154913465B0013449B0091
:1004D0000B44BA891A80FA7B104913465B00134417
:1004E0009B000B440433BA681A60FA7B0B4913462D
:1004F0005B0013449B000B440833FA881A80FA7B94
:10050000064913465B0013449B000B440A33002248
:100510001A7000BF1437BD4680BC70471C00002015
:1005200080B582B000AF0023FB7156E0FA792F4905
:1005300013465B0013449B000B4404331B68002BE1
:1005400048D0FA79294913465B0013449B000B44B9
:100550000A331B78002B3DD1FA79244913465B00FE
:1005600013449B000B4408331B88002B1ED1FA79DF
:100570001E4913465B0013449B000B441B88FA7909
:10058000013B98B2194913465B0013449B000B448E
:10059000083302461A80FA79144913465B00134463
:1005A0009B000B4404331B68984713E0FA790F490A
:1005B00013465B0013449B000B4408331B88013B2C
:1005C00098B20A4913465B0013449B000B4408335E
:1005D00002461A80FB790133FB71FB79022BA5D906
:1005E00000BF00BF0837BD4680BD00BF1C00002013
:1005F00080B500AF024B1B68984700BF80BD00BFAD
:100600004000002080B483B000AF7860034A7B686C
:10061000136000BF0C37BD4680BC7047400000200F
:1006200080B400AF034B02221A6000BFBD4680BCFD
:10063000704700BF10E000E080B483B000AF786086
:10064000084A7B68013B5360064B00229A60054BC9
:100650001B68044A43F00103136000BF0C37BD461A
:1006600080BC704710E000E080B500AFFFF79EFE51
:1006700002210620FFF7BEFE022200210020FFF724
:1006800077FD022201210020FFF772FD02220221E4
:100690000020FFF76DFD00230B4A4FF47A71002014
:1006A000FFF7FAFE0023094A4FF4FA610120FFF731
:1006B000F3FE0023064A40F6B8310220FFF7ECFEB5
:1006C000FFF7DAFEFEE700BFD5060008E5060008E2
:1006D000F506000880B500AF00210020FFF720FEDE
:1006E00000BF80BD80B500AF01210020FFF718FEDC
:1006F00000BF80BD80B500AF02210020FFF710FED3
:1007000000BF80BD0D488546AFF300800C480D4901
:100710000D4A002302E0D458C4500433C4188C425C
:10072000F9D30A4A0A4C002301E013600432A242C2
:10073000FBD300F011F8FFF797FFFEE70050002011
:100740000000002000000020C0070008000000207A
:1007500044000020FEE7000070B500260C4D0D4C53
:10076000641BA410A64209D100F01AF800260A4D15
:100770000A4C641BA410A64205D170BD55F8043B79
:1007800098470136EEE755F8043B98470136F2E703
:10079000B8070008B8070008B8070008BC07000839
:1007A000F8B500BFF8BC08BC9E467047F8B500BF5E
:0807B000F8BC08BC9E4670472E
:0407B80055010008DF
:0407BC0031010008FF
:0400000508000705E3
:00000001FF
