:020000040800F2
:10000000005000205D050008AD050008AD050008A2
:10001000AD050008AD050008AD05000800000000B2
:10002000000000000000000000000000AD05000816
:10003000AD05000800000000AD050008AD05000892
:10004000AD050008AD050008AD050008AD050008C8
:10005000AD050008AD050008AD050008AD050008B8
:10006000AD050008AD050008AD050008AD050008A8
:10007000AD050008AD050008AD050008AD05000898
:10008000AD050008AD050008AD050008AD05000888
:10009000AD050008AD050008AD050008AD05000878
:1000A000AD050008AD050008AD050008AD05000868
:1000B000AD050008AD050008AD050008AD05000858
:1000C000AD050008AD050008AD050008AD05000848
:1000D000AD050008AD050008AD050008AD05000838
:1000E000AD050008AD05000800000000AD050008E2
:1000F000AD050008AD050008AD050008AD05000818
:10010000AD050008AD050008AD050008AD05000807
:10011000AD050008AD050008AD050008AD050008F7
:10012000AD050008AD050008AD050008AD050008E7
:1001300010B5054C237833B9044B13B10448AFF321
:1001400000800123237010BD00000020000000008B
:10015000F805000808B5034B1BB103490348AFF38A
:10016000008008BD0000000004000020F805000821
:1001700080B582B000AF0346FB71FB79022B10D033
:10018000022B13DC002B02D0012B05D00EE0022144
:10019000062000F053F90AE00321062000F04EF992
:1001A00005E00421062000F049F900E000BF00BF8F
:1001B0000837BD4680BD000080B483B000AF034661
:1001C000FB710B46BB7113467B71FB79022B00F26E
:1001D000B980BB790F2B00F2B580FB79022B74D06C
:1001E000022B00F3A880002B02D0012B37D0A2E015
:1001F000BB79072B17D8564B1B68BA7992000F2191
:1002000001FA02F2D2431146514A0B401360504B9F
:100210001B687979BA79920001FA02F211464C4AC8
:100220000B43136089E0BB79072B40F28680494B72
:100230001B68BA7992000F2101FA02F2D2431146EB
:10024000444A0B401360434B1B687979BA7992009A
:1002500001FA02F211463F4A0B4313606DE0BB798D
:10026000072B17D83C4B1B68BA7992000F2101FA73
:1002700002F2D2431146384A0B401360364B1B68DA
:100280007979BA79920001FA02F21146324A0B43A7
:10029000136054E0BB79072B51D9304B1B68BA79F6
:1002A00092000F2101FA02F2D24311462B4A0B4071
:1002B00013602A4B1B687979BA79920001FA02F22D
:1002C0001146264A0B43136039E0BB79072B17D838
:1002D000234B1B68BA7992000F2101FA02F2D24334
:1002E00011461F4A0B4013601D4B1B687979BA7980
:1002F000920001FA02F21146194A0B43136020E002
:10030000BB79072B1DD9174B1B68BA7992000F21B7
:1003100001FA02F2D2431146124A0B401360114B0C
:100320001B687979BA79920001FA02F211460D4AF6
:100330000B43136005E000BF04E000BF02E000BF14
:1003400000E000BF00BF0C37BD4680BC704700BF57
:100350000008014004080140000C0140040C014069
:10036000001001400410014080B483B000AF034688
:100370000A46FB711346BB71FB79022B2ED8BB7961
:100380000F2B2BD8FB79022B1CD0022B25DC002B4A
:1003900002D0012B0BD020E0134B1B68BA7901214E
:1003A00001FA02F21146104A4B40136016E00F4B5F
:1003B0001B68BA79012101FA02F211460B4A4B403F
:1003C00013600BE00A4B1B68BA79012101FA02F2B3
:1003D0001146074A4B40136000E000BF00BF0C37D6
:1003E000BD4680BC704700BF0C0801400C0C0140AA
:1003F0000C10014080B400AF0E4B1B680D4A23F077
:10040000010313600B4B1B680A4A23F002031360BD
:10041000094B1B68084A43F00103136000BF064BF9
:100420001B6803F00203002BF9D000BF00BFBD46DC
:1004300080BC7047041002400010024080B483B0BA
:1004400000AF03460A46FB711346BB71BB791F2BF5
:100450002BD8FB79062B11D0062B25DC012B02D0E3
:10046000032B16D020E0134B1B68BA79012101FA47
:1004700002F211460F4A0B43136016E00E4B1B6845
:10048000BA79012101FA02F211460B4A0B431360BB
:100490000BE00A4B1B68BA79012101FA02F21146FE
:1004A000064A0B43136000E000BF00BF0C37BD4697
:1004B00080BC704714100240181002401C1002400B
:1004C00080B500AF00F003F80023184680BD80B56A
:1004D00000AFFFF78FFF0020FFF74AFE0222002146
:1004E0000020FFF769FE022201210020FFF764FED1
:1004F00000F01CF800F025F8FAE780B485B000AFF2
:1005000078600023FB6003E000BFFB680133FB6001
:100510007B684FF4FA7202FB03F3FA689A42F3D352
:1005200000BF00BF1437BD4680BC704780B500AF28
:1005300000210020FFF718FFFA20FFF7DEFF00BFC1
:1005400080BD80B500AF01210020FFF70DFF4FF403
:10055000FA70FFF7D2FF00BF80BD00000D4885464E
:10056000AFF300800C480D490D4A002302E0D45837
:10057000C4500433C4188C42F9D30A4A0A4C0023ED
:1005800001E013600432A242FBD300F011F8FFF740
:1005900097FFFEE700500020000000200000002030
:1005A00018060008000000201C000020FEE70000E4
:1005B00070B500260C4D0D4C641BA410A64209D149
:1005C00000F01AF800260A4D0A4C641BA410A6423B
:1005D00005D170BD55F8043B98470136EEE755F854
:1005E000043B98470136F2E71006000810060008A1
:1005F0001006000814060008F8B500BFF8BC08BCD7
:100600009E467047F8B500BFF8BC08BC9E467047D0
:040610005501000888
:0406140031010008A8
:040000050800055D8D
:00000001FF
