:020000040800F2
:10000000005000200D0700085D0700085D0700088C
:100010005D0700085D0700085D070008000000009C
:100020000000000000000000000000005D07000864
:100030005D070008000000005D0700086D0500086E
:100040005D0700085D0700085D0700085D07000800
:100050005D0700085D0700085D0700085D070008F0
:100060005D0700085D0700085D0700085D070008E0
:100070005D0700085D0700085D0700085D070008D0
:100080005D0700085D0700085D0700085D070008C0
:100090005D0700085D0700085D0700085D070008B0
:1000A0005D0700085D0700085D0700085D070008A0
:1000B0005D0700085D0700085D0700085D07000890
:1000C0005D0700085D0700085D0700085D07000880
:1000D0005D0700085D0700084D0600085D07000881
:1000E0005D0700085D070008000000005D070008CC
:1000F0005D0700085D0700085D0700085D07000850
:100100005D0700085D0700085D0700085D0700083F
:100110005D0700085D0700085D0700085D0700082F
:100120005D0700085D0700085D0700085D0700081F
:1001300010B5054C237833B9044B13B10448AFF321
:1001400000800123237010BD00000020000000008B
:10015000A807000808B5034B1BB103490348AFF3D8
:10016000008008BD0000000004000020A80700086F
:1001700080B483B000AF0346FB710B46BB711346DE
:100180007B71FB79022B00F2B980BB790F2B00F257
:10019000B580FB79022B74D0022B00F3A880002BD2
:1001A00002D0012B37D0A2E0BB79072B17D8564BD2
:1001B0001B68BA7992000F2101FA02F2D24311466C
:1001C000514A0B401360504B1B687979BA79920001
:1001D00001FA02F211464C4A0B43136089E0BB79E5
:1001E000072B40F28680494B1B68BA7992000F2199
:1001F00001FA02F2D2431146444A0B401360434BCA
:100200001B687979BA79920001FA02F211463F4AE5
:100210000B4313606DE0BB79072B17D83C4B1B6871
:10022000BA7992000F2101FA02F2D2431146384AFC
:100230000B401360364B1B687979BA79920001FA4A
:1002400002F21146324A0B43136054E0BB79072B8C
:1002500051D9304B1B68BA7992000F2101FA02F292
:10026000D24311462B4A0B4013602A4B1B68797905
:10027000BA79920001FA02F21146264A0B43136042
:1002800039E0BB79072B17D8234B1B68BA7992004A
:100290000F2101FA02F2D24311461F4A0B401360AC
:1002A0001D4B1B687979BA79920001FA02F2114666
:1002B000194A0B43136020E0BB79072B1DD9174B5C
:1002C0001B68BA7992000F2101FA02F2D24311465B
:1002D000124A0B401360114B1B687979BA7992006E
:1002E00001FA02F211460D4A0B43136005E000BF0C
:1002F00004E000BF02E000BF00E000BF00BF0C3719
:10030000BD4680BC704700BF0008014004080140A2
:10031000000C0140040C0140001001400410014099
:1003200080B483B000AF0346FB710B46BB7113462C
:100330007B71FB79022B64D8BB790F2B61D87B7959
:10034000012B2AD1FB79022B1CD0022B56DC002B6F
:1003500002D0012B0BD051E02C4B1B68BA79012144
:1003600001FA02F21146294A0B43136049E0284B77
:100370001B68BA79012101FA02F21146244A0B43A3
:1003800013603EE0234B1B68BA79012101FA02F2A7
:100390001146204A0B43136033E07B79002B30D1A8
:1003A000FB79022B1ED0022B2ADC002B02D0012B62
:1003B0000CD025E0154B1B68BA79012101FA02F235
:1003C000D2431146114A0B4013601AE0104B1B68D0
:1003D000BA79012101FA02F2D24311460C4A0B40CC
:1003E00013600EE00B4B1B68BA79012101FA02F28F
:1003F000D2431146074A0B40136002E000BF00E001
:1004000000BF00BF0C37BD4680BC70470C080140E0
:100410000C0C01400C10014080B400AF0E4B1B6867
:100420000D4A23F0010313600B4B1B680A4A23F0AB
:1004300002031360094B1B68084A43F00103136071
:1004400000BF064B1B6803F00203002BF9D000BF6E
:1004500000BFBD4680BC704704100240001002403F
:1004600080B483B000AF03460A46FB711346BB71EC
:10047000BB791F2B2BD8FB79062B11D0062B25DC43
:10048000012B02D0032B16D020E0134B1B68BA7946
:10049000012101FA02F211460F4A0B43136016E0E4
:1004A0000E4B1B68BA79012101FA02F211460B4A80
:1004B0000B4313600BE00A4B1B68BA79012101FA68
:1004C00002F21146064A0B43136000E000BF00BF72
:1004D0000C37BD4680BC7047141002401810024013
:1004E0001C10024080B485B000AFBA601A460346C3
:1004F000FB730B46BB811346FB80FA7B1A491346FC
:100500005B0013449B000B4404331B68002B26D173
:10051000FA7B154913465B0013449B000B44BA89D0
:100520001A80FA7B104913465B0013449B000B446E
:100530000433BA681A60FA7B0B4913465B00134414
:100540009B000B440833FA881A80FA7B064913464D
:100550005B0013449B000B440A3300221A7000BF57
:100560001437BD4680BC70471C00002080B500AF2A
:10057000024B1B68984700BF80BD00BF40000020B1
:1005800080B500AF0A2206210020FFF7F1FD0A2204
:1005900007210020FFF7ECFD0D4B1B680C4A23F0F0
:1005A000600313600A4B1B68094A23F010031360B1
:1005B000074B40F2FF329A62054B4FF40052DA6269
:1005C000034B1B68024A43F00103136000BF80BD68
:1005D0000004004080B483B000AF0346FB71194BA8
:1005E0009B69184A43F070039361164B9B69154A47
:1005F00043F008039361FB79C3F16403FB71114B72
:10060000596BFA7913465B0313440F4A82FB0302CA
:100610005211DB17D31A9BB2013B9BB2094A0B4321
:100620005363084B1B6A074A43F001031362054BEF
:100630001B68044A43F00103136000BF0C37BD463A
:1006400080BC7047000400401F85EB5180B500AFAF
:10065000034B00221A60034B1B68984700BF80BD04
:10066000004400404400002080B500AFFFF7D4FEF6
:1006700002210620FFF7F4FE11210320FFF7F0FE10
:1006800001210320FFF7ECFEFFF77AFF0222002191
:100690000020FFF76DFD022201210020FFF768FD19
:1006A0000A2202210020FFF763FD0422032100201B
:1006B000FFF75EFD022204210020FFF759FD022210
:1006C00005210020FFF754FD0A2206210020FFF734
:1006D0004FFD0A2207210020FFF74AFD3220FFF7D5
:1006E00079FF0023034AC8210020FFF7FBFE002307
:1006F000184680BDF906000880B500AF012206212A
:100700000020FFF70DFE00BF80BD00000D488546AC
:10071000AFF300800C480D490D4A002302E0D45885
:10072000C4500433C4188C42F9D30A4A0A4C00233B
:1007300001E013600432A242FBD300F011F8FFF78E
:1007400093FFFEE700500020000000200000002082
:10075000C80700080000002048000020FEE7000055
:1007600070B500260C4D0D4C641BA410A64209D197
:1007700000F01AF800260A4D0A4C641BA410A64289
:1007800005D170BD55F8043B98470136EEE755F8A2
:10079000043B98470136F2E7C0070008C00700088D
:1007A000C0070008C4070008F8B500BFF8BC08BCC3
:1007B0009E467047F8B500BFF8BC08BC9E4670471F
:0407C00055010008D7
:0407C40031010008F7
:040000050800070DDB
:00000001FF
