:020000040800F2
:100000000050002099060008E9060008E9060008EB
:10001000E9060008E9060008E906000800000000FB
:10002000000000000000000000000000E9060008D9
:10003000E906000800000000E9060008E9060008DB
:10004000E9060008E9060008E9060008E9060008D4
:10005000E9060008E9060008E9060008E9060008C4
:10006000E9060008E9060008E9060008E9060008B4
:10007000E9060008E9060008E9060008E9060008A4
:10008000E9060008E9060008E9060008E906000894
:10009000E9060008E9060008E9060008E906000884
:1000A000E9060008E9060008E9060008E906000874
:1000B000E9060008E9060008E9060008E906000864
:1000C000E9060008E9060008E9060008E906000854
:1000D000E9060008E906000811060008E90600081C
:1000E000E9060008E906000800000000E90600082B
:1000F000E9060008E9060008E9060008E906000824
:10010000E9060008E9060008E9060008E906000813
:10011000E9060008E9060008E9060008E906000803
:10012000E9060008E9060008E9060008E9060008F3
:1001300010B5054C237833B9044B13B10448AFF321
:1001400000800123237010BD00000020000000008B
:100150003407000808B5034B1BB103490348AFF34C
:10016000008008BD000000000400002034070008E3
:1001700080B483B000AF0346FB710B46BB711346DE
:100180007B71FB79022B00F2B980BB790F2B00F257
:10019000B580FB79022B74D0022B00F3A880002BD2
:1001A00002D0012B37D0A2E0BB79072B17D8564BD2
:1001B0001B68BA7992000F2101FA02F2D24311466C
:1001C000514A0B401360504B1B687979BA79920001
:1001D00001FA02F211464C4A0B43136089E0BB79E5
:1001E000072B40F28680494B1B68BA7992000F2199
:1001F00001FA02F2D2431146444A0B401360434BCA
:100200001B687979BA79920001FA02F211463F4AE5
:100210000B4313606DE0BB79072B17D83C4B1B6871
:10022000BA7992000F2101FA02F2D2431146384AFC
:100230000B401360364B1B687979BA79920001FA4A
:1002400002F21146324A0B43136054E0BB79072B8C
:1002500051D9304B1B68BA7992000F2101FA02F292
:10026000D24311462B4A0B4013602A4B1B68797905
:10027000BA79920001FA02F21146264A0B43136042
:1002800039E0BB79072B17D8234B1B68BA7992004A
:100290000F2101FA02F2D24311461F4A0B401360AC
:1002A0001D4B1B687979BA79920001FA02F2114666
:1002B000194A0B43136020E0BB79072B1DD9174B5C
:1002C0001B68BA7992000F2101FA02F2D24311465B
:1002D000124A0B401360114B1B687979BA7992006E
:1002E00001FA02F211460D4A0B43136005E000BF0C
:1002F00004E000BF02E000BF00E000BF00BF0C3719
:10030000BD4680BC704700BF0008014004080140A2
:10031000000C0140040C0140001001400410014099
:1003200080B483B000AF0346FB710B46BB7113462C
:100330007B71FB79022B64D8BB790F2B61D87B7959
:10034000012B2AD1FB79022B1CD0022B56DC002B6F
:1003500002D0012B0BD051E02C4B1B68BA79012144
:1003600001FA02F21146294A0B43136049E0284B77
:100370001B68BA79012101FA02F21146244A0B43A3
:1003800013603EE0234B1B68BA79012101FA02F2A7
:100390001146204A0B43136033E07B79002B30D1A8
:1003A000FB79022B1ED0022B2ADC002B02D0012B62
:1003B0000CD025E0154B1B68BA79012101FA02F235
:1003C000D2431146114A0B4013601AE0104B1B68D0
:1003D000BA79012101FA02F2D24311460C4A0B40CC
:1003E00013600EE00B4B1B68BA79012101FA02F28F
:1003F000D2431146074A0B40136002E000BF00E001
:1004000000BF00BF0C37BD4680BC70470C080140E0
:100410000C0C01400C10014080B400AF0E4B1B6867
:100420000D4A23F0010313600B4B1B680A4A23F0AB
:1004300002031360094B1B68084A43F00103136071
:1004400000BF064B1B6803F00203002BF9D000BF6E
:1004500000BFBD4680BC704704100240001002403F
:1004600080B483B000AF03460A46FB711346BB71EC
:10047000BB791F2B2BD8FB79062B11D0062B25DC43
:10048000012B02D0032B16D020E0134B1B68BA7946
:10049000012101FA02F211460F4A0B43136016E0E4
:1004A0000E4B1B68BA79012101FA02F211460B4A80
:1004B0000B4313600BE00A4B1B68BA79012101FA68
:1004C00002F21146064A0B43136000E000BF00BF72
:1004D0000C37BD4680BC7047141002401810024013
:1004E0001C10024080B483B000AF34237B608023B3
:1004F0003B603B6840F2DC52934204D97B68013395
:100500007B6000233B60274B00221A60254BDB6891
:10051000244A23F48053D360224BDB68214A23F41E
:100520008063D3601F4BDB681E4A23F02003D36037
:100530001C4BDB681B4A23F04003D360194BDB687C
:10054000184A23F08003D360164BDB68154A43F04A
:100550000803D360134BDB68124A43F00403D360F3
:10056000104B1B690F4A23F4805313610D4B1B6919
:100570000C4A23F4005313617B681A013B680A4953
:10058000A1FB03135B09074913438B60054BDB6831
:10059000044A43F40053D36000BF0C37BD4680BC0F
:1005A000704700BF004400401F85EB5180B483B00A
:1005B00000AF0023FB7100233B60124B1B68114A04
:1005C00023F02003136002E03B6801333B600D4BD6
:1005D0001B6803F02003002B03D13B680A4A9342B7
:1005E000F2D93B68094A934202D1FF23FB7102E032
:1005F000044B5B68FB71FB7918460C37BD4680BC29
:10060000704700BF004400403F54890040548900B7
:1006100080B500AF034B00221A60034B1B6898475C
:1006200000BF80BD004400401C00002080B582B0A7
:1006300000AF0023FB71FFF7EFFE02210620FFF75A
:100640000FFF11210320FFF70BFF0A2202210020D8
:10065000FFF78EFD042203210020FFF789FD02220F
:1006600000210020FFF784FDFFF73CFFFFF79EFF0E
:100670000346FB71FB79302B05D1002200210020BD
:10068000FFF74EFEF2E7FB79312BEFD1012200217B
:100690000020FFF745FEE9E70D488546AFF30080EF
:1006A0000C480D490D4A002302E0D458C4500433CD
:1006B000C4188C42F9D30A4A0A4C002301E01360A3
:1006C0000432A242FBD300F011F8FFF7AFFFFEE7C0
:1006D0000050002000000020000000205407000807
:1006E0000000002020000020FEE7000070B500267A
:1006F0000C4D0D4C641BA410A64209D100F01AF851
:1007000000260A4D0A4C641BA410A64205D170BDF8
:1007100055F8043B98470136EEE755F8043B9847F7
:100720000136F2E74C0700084C0700084C070008A8
:1007300050070008F8B500BFF8BC08BC9E467047DB
:0C074000F8B500BFF8BC08BC9E4670472E
:04074C00550100084B
:04075000310100086B
:040000050800069950
:00000001FF
